{
  "_format": "hh-sol-artifact-1",
  "contractName": "BlumeLiquidStaking",
  "sourceName": "contracts/BLS.sol",
  "abi": [
    {
      "inputs": [
        {
          "internalType": "contract BLSToken",
          "name": "_blsToken",
          "type": "address"
        },
        {
          "internalType": "contract stBLSToken",
          "name": "_stBlsToken",
          "type": "address"
        }
      ],
      "stateMutability": "nonpayable",
      "type": "constructor"
    },
    {
      "inputs": [],
      "name": "blsToken",
      "outputs": [
        {
          "internalType": "contract BLSToken",
          "name": "",
          "type": "address"
        }
      ],
      "stateMutability": "view",
      "type": "function"
    },
    {
      "inputs": [],
      "name": "stBlsToken",
      "outputs": [
        {
          "internalType": "contract stBLSToken",
          "name": "",
          "type": "address"
        }
      ],
      "stateMutability": "view",
      "type": "function"
    },
    {
      "inputs": [
        {
          "internalType": "uint256",
          "name": "amount",
          "type": "uint256"
        }
      ],
      "name": "stake",
      "outputs": [],
      "stateMutability": "nonpayable",
      "type": "function"
    },
    {
      "inputs": [
        {
          "internalType": "uint256",
          "name": "amount",
          "type": "uint256"
        }
      ],
      "name": "unstake",
      "outputs": [],
      "stateMutability": "nonpayable",
      "type": "function"
    }
  ],
  "bytecode": "0x608060405234801561001057600080fd5b506040516107983803806107988339818101604052810190610032919061016d565b816000806101000a81548173ffffffffffffffffffffffffffffffffffffffff021916908373ffffffffffffffffffffffffffffffffffffffff16021790555080600160006101000a81548173ffffffffffffffffffffffffffffffffffffffff021916908373ffffffffffffffffffffffffffffffffffffffff16021790555050506101ad565b600080fd5b600073ffffffffffffffffffffffffffffffffffffffff82169050919050565b60006100ea826100bf565b9050919050565b60006100fc826100df565b9050919050565b61010c816100f1565b811461011757600080fd5b50565b60008151905061012981610103565b92915050565b600061013a826100df565b9050919050565b61014a8161012f565b811461015557600080fd5b50565b60008151905061016781610141565b92915050565b60008060408385031215610184576101836100ba565b5b60006101928582860161011a565b92505060206101a385828601610158565b9150509250929050565b6105dc806101bc6000396000f3fe608060405234801561001057600080fd5b506004361061004c5760003560e01c80632e17de78146100515780633f9543861461006d578063a694fc3a1461008b578063b756100d146100a7575b600080fd5b61006b600480360381019061006691906103ae565b6100c5565b005b6100756101f6565b604051610082919061045a565b60405180910390f35b6100a560048036038101906100a091906103ae565b61021a565b005b6100af61034d565b6040516100bc9190610496565b60405180910390f35b600160009054906101000a900473ffffffffffffffffffffffffffffffffffffffff1673ffffffffffffffffffffffffffffffffffffffff16639dc29fac33836040518363ffffffff1660e01b81526004016101229291906104e1565b600060405180830381600087803b15801561013c57600080fd5b505af1158015610150573d6000803e3d6000fd5b5050505060008054906101000a900473ffffffffffffffffffffffffffffffffffffffff1673ffffffffffffffffffffffffffffffffffffffff1663a9059cbb33836040518363ffffffff1660e01b81526004016101af9291906104e1565b6020604051808303816000875af11580156101ce573d6000803e3d6000fd5b505050506040513d601f19601f820116820180604052508101906101f29190610542565b5050565b60008054906101000a900473ffffffffffffffffffffffffffffffffffffffff1681565b60008054906101000a900473ffffffffffffffffffffffffffffffffffffffff1673ffffffffffffffffffffffffffffffffffffffff166323b872dd3330846040518463ffffffff1660e01b81526004016102779392919061056f565b6020604051808303816000875af1158015610296573d6000803e3d6000fd5b505050506040513d601f19601f820116820180604052508101906102ba9190610542565b50600160009054906101000a900473ffffffffffffffffffffffffffffffffffffffff1673ffffffffffffffffffffffffffffffffffffffff166340c10f1933836040518363ffffffff1660e01b81526004016103189291906104e1565b600060405180830381600087803b15801561033257600080fd5b505af1158015610346573d6000803e3d6000fd5b5050505050565b600160009054906101000a900473ffffffffffffffffffffffffffffffffffffffff1681565b600080fd5b6000819050919050565b61038b81610378565b811461039657600080fd5b50565b6000813590506103a881610382565b92915050565b6000602082840312156103c4576103c3610373565b5b60006103d284828501610399565b91505092915050565b600073ffffffffffffffffffffffffffffffffffffffff82169050919050565b6000819050919050565b600061042061041b610416846103db565b6103fb565b6103db565b9050919050565b600061043282610405565b9050919050565b600061044482610427565b9050919050565b61045481610439565b82525050565b600060208201905061046f600083018461044b565b92915050565b600061048082610427565b9050919050565b61049081610475565b82525050565b60006020820190506104ab6000830184610487565b92915050565b60006104bc826103db565b9050919050565b6104cc816104b1565b82525050565b6104db81610378565b82525050565b60006040820190506104f660008301856104c3565b61050360208301846104d2565b9392505050565b60008115159050919050565b61051f8161050a565b811461052a57600080fd5b50565b60008151905061053c81610516565b92915050565b60006020828403121561055857610557610373565b5b60006105668482850161052d565b91505092915050565b600060608201905061058460008301866104c3565b61059160208301856104c3565b61059e60408301846104d2565b94935050505056fea26469706673582212205f4c7dfa0963a5842adaf97a18f9f112374201cdd0df81ac77d14df69b6767ca64736f6c63430008140033",
  "linkReferences": {},
  "deployedLinkReferences": {}
}